{
	"data": {
		"bytecode": {
			"linkReferences": {},
			"object": "608060405234801561001057600080fd5b50611b4d806100206000396000f3fe608060405234801561001057600080fd5b506004361061007d5760003560e01c806352e60d601161005b57806352e60d60146100f2578063547c277614610122578063a5ba70e81461013e578063f4f3bc901461015a5761007d565b80631379bfd2146100825780633d7b6f4d1461009e57806342349514146100ba575b600080fd5b61009c60048036038101906100979190611047565b610178565b005b6100b860048036038101906100b391906111c6565b6103f4565b005b6100d460048036038101906100cf9190611159565b6106c0565b6040516100e9999897969594939291906115d0565b60405180910390f35b61010c60048036038101906101079190611186565b6109b0565b6040516101199190611408565b60405180910390f35b61013c60048036038101906101379190611159565b610a6b565b005b61015860048036038101906101539190611159565b610c8c565b005b610162610f04565b60405161016f9190611563565b60405180910390f35b60008714156101bc576040517f08c379a00000000000000000000000000000000000000000000000000000000081526004016101b390611423565b60405180910390fd5b6040518061018001604052803373ffffffffffffffffffffffffffffffffffffffff1681526020018881526020016000801916815260200160405180602001604052806000815250815260200160001515815260200187815260200186815260200185815260200184815260200183815260200182815260200160011515815250600080600154815260200190815260200160002060008201518160000160006101000a81548173ffffffffffffffffffffffffffffffffffffffff021916908373ffffffffffffffffffffffffffffffffffffffff160217905550602082015181600101556040820151816002015560608201518160030190805190602001906102c8929190610f0a565b5060808201518160040160006101000a81548160ff02191690831515021790555060a0820151816005015560c082015181600601908051906020019061030f929190610f0a565b5060e082015181600701908051906020019061032c929190610f0a565b5061010082015181600801908051906020019061034a929190610f0a565b50610120820151816009015561014082015181600a019080519060200190610373929190610f0a565b5061016082015181600b0160006101000a81548160ff0219169083151502179055509050507f4da35c6ae8d319adbf7f8227beef1cdb68c67e3c3e80e9f6458de9ede73f75e2600154886040516103cb9291906115a7565b60405180910390a1600160008154809291906103e6906117e2565b919050555050505050505050565b6001548310610438576040517f08c379a000000000000000000000000000000000000000000000000000000000815260040161042f90611443565b60405180910390fd5b600073ffffffffffffffffffffffffffffffffffffffff1660008085815260200190815260200160002060000160009054906101000a900473ffffffffffffffffffffffffffffffffffffffff1673ffffffffffffffffffffffffffffffffffffffff1614156104dd576040517f08c379a00000000000000000000000000000000000000000000000000000000081526004016104d4906114c3565b60405180910390fd5b3373ffffffffffffffffffffffffffffffffffffffff1660008085815260200190815260200160002060000160009054906101000a900473ffffffffffffffffffffffffffffffffffffffff1673ffffffffffffffffffffffffffffffffffffffff161415610581576040517f08c379a000000000000000000000000000000000000000000000000000000000815260040161057890611503565b60405180910390fd5b6000151560008085815260200190815260200160002060040160009054906101000a900460ff161515146105ea576040517f08c379a00000000000000000000000000000000000000000000000000000000081526004016105e190611523565b60405180910390fd5b816000808581526020019081526020016000206002018190555080600080858152602001908152602001600020600301908051906020019061062d929190610f0a565b503360008085815260200190815260200160002060000160006101000a81548173ffffffffffffffffffffffffffffffffffffffff021916908373ffffffffffffffffffffffffffffffffffffffff1602179055507ff3ba6536eee813fd8130fd5408f2b3c354b7a697e6f31425abcfced7440bc71283836040516106b39291906115a7565b60405180910390a1505050565b600060608060606000606060008060006001548a10610714576040517f08c379a000000000000000000000000000000000000000000000000000000000815260040161070b90611443565b60405180910390fd5b60008060008c815260200190815260200160002090508060050154816006018260070183600801846009015485600a018660010154876002015488600b0160009054906101000a900460ff1687805461076c9061177f565b80601f01602080910402602001604051908101604052809291908181526020018280546107989061177f565b80156107e55780601f106107ba576101008083540402835291602001916107e5565b820191906000526020600020905b8154815290600101906020018083116107c857829003601f168201915b505050505097508680546107f89061177f565b80601f01602080910402602001604051908101604052809291908181526020018280546108249061177f565b80156108715780601f1061084657610100808354040283529160200191610871565b820191906000526020600020905b81548152906001019060200180831161085457829003601f168201915b505050505096508580546108849061177f565b80601f01602080910402602001604051908101604052809291908181526020018280546108b09061177f565b80156108fd5780601f106108d2576101008083540402835291602001916108fd565b820191906000526020600020905b8154815290600101906020018083116108e057829003601f168201915b505050505095508380546109109061177f565b80601f016020809104026020016040519081016040528092919081815260200182805461093c9061177f565b80156109895780601f1061095e57610100808354040283529160200191610989565b820191906000526020600020905b81548152906001019060200180831161096c57829003601f168201915b50505050509350995099509950995099509950995099509950509193959799909294969850565b600060015483106109f6576040517f08c379a00000000000000000000000000000000000000000000000000000000081526004016109ed90611443565b60405180910390fd5b816000808581526020019081526020016000206002015414610a4d576040517f08c379a0000000000000000000000000000000000000000000000000000000008152600401610a4490611543565b60405180910390fd5b60008084815260200190815260200160002060010154905092915050565b6001548110610aaf576040517f08c379a0000000000000000000000000000000000000000000000000000000008152600401610aa690611443565b60405180910390fd5b3373ffffffffffffffffffffffffffffffffffffffff1660008083815260200190815260200160002060000160009054906101000a900473ffffffffffffffffffffffffffffffffffffffff1673ffffffffffffffffffffffffffffffffffffffff1614610b52576040517f08c379a0000000000000000000000000000000000000000000000000000000008152600401610b4990611483565b60405180910390fd5b6000151560008083815260200190815260200160002060040160009054906101000a900460ff16151514610bbb576040517f08c379a0000000000000000000000000000000000000000000000000000000008152600401610bb2906114e3565b60405180910390fd5b60011515600080838152602001908152602001600020600b0160009054906101000a900460ff16151514610c24576040517f08c379a0000000000000000000000000000000000000000000000000000000008152600401610c1b906114c3565b60405180910390fd5b600160008083815260200190815260200160002060040160006101000a81548160ff0219169083151502179055507fa6ada7551f33cd4d1a41b44d79167050d0b49488f4fb78205f5d9dc235139c8581604051610c819190611563565b60405180910390a150565b6001548110610cd0576040517f08c379a0000000000000000000000000000000000000000000000000000000008152600401610cc790611443565b60405180910390fd5b3373ffffffffffffffffffffffffffffffffffffffff1660008083815260200190815260200160002060000160009054906101000a900473ffffffffffffffffffffffffffffffffffffffff1673ffffffffffffffffffffffffffffffffffffffff161415610d74576040517f08c379a0000000000000000000000000000000000000000000000000000000008152600401610d6b90611463565b60405180910390fd5b6001151560008083815260200190815260200160002060040160009054906101000a900460ff16151514610ddd576040517f08c379a0000000000000000000000000000000000000000000000000000000008152600401610dd4906114a3565b60405180910390fd5b60011515600080838152602001908152602001600020600b0160009054906101000a900460ff16151514610e46576040517f08c379a0000000000000000000000000000000000000000000000000000000008152600401610e3d906114c3565b60405180910390fd5b3360008083815260200190815260200160002060000160006101000a81548173ffffffffffffffffffffffffffffffffffffffff021916908373ffffffffffffffffffffffffffffffffffffffff160217905550600080600083815260200190815260200160002060040160006101000a81548160ff0219169083151502179055507f676a22d8b040bec57d0e46f9dbf75342968434cd540c2042d892ca2d096dd7118133604051610ef992919061157e565b60405180910390a150565b60015481565b828054610f169061177f565b90600052602060002090601f016020900481019282610f385760008555610f7f565b82601f10610f5157805160ff1916838001178555610f7f565b82800160010185558215610f7f579182015b82811115610f7e578251825591602001919060010190610f63565b5b509050610f8c9190610f90565b5090565b5b80821115610fa9576000816000905550600101610f91565b5090565b6000610fc0610fbb8461169e565b611679565b905082815260208101848484011115610fdc57610fdb6118bd565b5b610fe784828561173d565b509392505050565b600081359050610ffe81611ae9565b92915050565b600082601f830112611019576110186118b8565b5b8135611029848260208601610fad565b91505092915050565b60008135905061104181611b00565b92915050565b600080600080600080600060e0888a031215611066576110656118c7565b5b60006110748a828b01610fef565b97505060206110858a828b01611032565b965050604088013567ffffffffffffffff8111156110a6576110a56118c2565b5b6110b28a828b01611004565b955050606088013567ffffffffffffffff8111156110d3576110d26118c2565b5b6110df8a828b01611004565b945050608088013567ffffffffffffffff811115611100576110ff6118c2565b5b61110c8a828b01611004565b93505060a061111d8a828b01611032565b92505060c088013567ffffffffffffffff81111561113e5761113d6118c2565b5b61114a8a828b01611004565b91505092959891949750929550565b60006020828403121561116f5761116e6118c7565b5b600061117d84828501611032565b91505092915050565b6000806040838503121561119d5761119c6118c7565b5b60006111ab85828601611032565b92505060206111bc85828601610fef565b9150509250929050565b6000806000606084860312156111df576111de6118c7565b5b60006111ed86828701611032565b93505060206111fe86828701610fef565b925050604084013567ffffffffffffffff81111561121f5761121e6118c2565b5b61122b86828701611004565b9150509250925092565b61123e816116eb565b82525050565b61124d816116fd565b82525050565b61125c81611709565b82525050565b600061126d826116cf565b61127781856116da565b935061128781856020860161174c565b611290816118cc565b840191505092915050565b60006112a8601a836116da565b91506112b3826118dd565b602082019050919050565b60006112cb6017836116da565b91506112d682611906565b602082019050919050565b60006112ee6023836116da565b91506112f98261192f565b604082019050919050565b60006113116032836116da565b915061131c8261197e565b604082019050919050565b6000611334601f836116da565b915061133f826119cd565b602082019050919050565b60006113576017836116da565b9150611362826119f6565b602082019050919050565b600061137a6023836116da565b915061138582611a1f565b604082019050919050565b600061139d601a836116da565b91506113a882611a6e565b602082019050919050565b60006113c0601b836116da565b91506113cb82611a97565b602082019050919050565b60006113e36014836116da565b91506113ee82611ac0565b602082019050919050565b61140281611733565b82525050565b600060208201905061141d6000830184611253565b92915050565b6000602082019050818103600083015261143c8161129b565b9050919050565b6000602082019050818103600083015261145c816112be565b9050919050565b6000602082019050818103600083015261147c816112e1565b9050919050565b6000602082019050818103600083015261149c81611304565b9050919050565b600060208201905081810360008301526114bc81611327565b9050919050565b600060208201905081810360008301526114dc8161134a565b9050919050565b600060208201905081810360008301526114fc8161136d565b9050919050565b6000602082019050818103600083015261151c81611390565b9050919050565b6000602082019050818103600083015261153c816113b3565b9050919050565b6000602082019050818103600083015261155c816113d6565b9050919050565b600060208201905061157860008301846113f9565b92915050565b600060408201905061159360008301856113f9565b6115a06020830184611235565b9392505050565b60006040820190506115bc60008301856113f9565b6115c96020830184611253565b9392505050565b6000610120820190506115e6600083018c6113f9565b81810360208301526115f8818b611262565b9050818103604083015261160c818a611262565b905081810360608301526116208189611262565b905061162f60808301886113f9565b81810360a08301526116418187611262565b905061165060c0830186611253565b61165d60e0830185611253565b61166b610100830184611244565b9a9950505050505050505050565b6000611683611694565b905061168f82826117b1565b919050565b6000604051905090565b600067ffffffffffffffff8211156116b9576116b8611889565b5b6116c2826118cc565b9050602081019050919050565b600081519050919050565b600082825260208201905092915050565b60006116f682611713565b9050919050565b60008115159050919050565b6000819050919050565b600073ffffffffffffffffffffffffffffffffffffffff82169050919050565b6000819050919050565b82818337600083830152505050565b60005b8381101561176a57808201518184015260208101905061174f565b83811115611779576000848401525b50505050565b6000600282049050600182168061179757607f821691505b602082108114156117ab576117aa61185a565b5b50919050565b6117ba826118cc565b810181811067ffffffffffffffff821117156117d9576117d8611889565b5b80604052505050565b60006117ed82611733565b91507fffffffffffffffffffffffffffffffffffffffffffffffffffffffffffffffff8214156118205761181f61182b565b5b600182019050919050565b7f4e487b7100000000000000000000000000000000000000000000000000000000600052601160045260246000fd5b7f4e487b7100000000000000000000000000000000000000000000000000000000600052602260045260246000fd5b7f4e487b7100000000000000000000000000000000000000000000000000000000600052604160045260246000fd5b600080fd5b600080fd5b600080fd5b600080fd5b6000601f19601f8301169050919050565b7f42696b6520686173682063616e6e6f7420626520656d7074792e000000000000600082015250565b7f42696b6520494420646f6573206e6f742065786973742e000000000000000000600082015250565b7f42696b65206f776e65722063616e6e6f74207265636f7665722074686520626960008201527f6b652e0000000000000000000000000000000000000000000000000000000000602082015250565b7f4f6e6c79207468652062696b65206f776e65722063616e207265706f7274207460008201527f68652062696b652061732073746f6c656e2e0000000000000000000000000000602082015250565b7f42696b65206973206e6f74207265706f727465642061732073746f6c656e2e00600082015250565b7f42696b65206973206e6f7420726567697374657265642e000000000000000000600082015250565b7f42696b6520697320616c7265616479207265706f727465642061732073746f6c60008201527f656e2e0000000000000000000000000000000000000000000000000000000000602082015250565b7f596f7520616c7265616479206f776e20746869732062696b652e000000000000600082015250565b7f42696b65206973207265706f727465642061732073746f6c656e2e0000000000600082015250565b7f496e76616c69642070726976617465206b65792e000000000000000000000000600082015250565b611af281611709565b8114611afd57600080fd5b50565b611b0981611733565b8114611b1457600080fd5b5056fea26469706673582212206974aad03bf02f126afe51ff33f887987edd06427cf02ebc94b9a411b7e838f764736f6c63430008060033",
			"opcodes": "PUSH1 0x80 PUSH1 0x40 MSTORE CALLVALUE DUP1 ISZERO PUSH2 0x10 JUMPI PUSH1 0x0 DUP1 REVERT JUMPDEST POP PUSH2 0x1B4D DUP1 PUSH2 0x20 PUSH1 0x0 CODECOPY PUSH1 0x0 RETURN INVALID PUSH1 0x80 PUSH1 0x40 MSTORE CALLVALUE DUP1 ISZERO PUSH2 0x10 JUMPI PUSH1 0x0 DUP1 REVERT JUMPDEST POP PUSH1 0x4 CALLDATASIZE LT PUSH2 0x7D JUMPI PUSH1 0x0 CALLDATALOAD PUSH1 0xE0 SHR DUP1 PUSH4 0x52E60D60 GT PUSH2 0x5B JUMPI DUP1 PUSH4 0x52E60D60 EQ PUSH2 0xF2 JUMPI DUP1 PUSH4 0x547C2776 EQ PUSH2 0x122 JUMPI DUP1 PUSH4 0xA5BA70E8 EQ PUSH2 0x13E JUMPI DUP1 PUSH4 0xF4F3BC90 EQ PUSH2 0x15A JUMPI PUSH2 0x7D JUMP JUMPDEST DUP1 PUSH4 0x1379BFD2 EQ PUSH2 0x82 JUMPI DUP1 PUSH4 0x3D7B6F4D EQ PUSH2 0x9E JUMPI DUP1 PUSH4 0x42349514 EQ PUSH2 0xBA JUMPI JUMPDEST PUSH1 0x0 DUP1 REVERT JUMPDEST PUSH2 0x9C PUSH1 0x4 DUP1 CALLDATASIZE SUB DUP2 ADD SWAP1 PUSH2 0x97 SWAP2 SWAP1 PUSH2 0x1047 JUMP JUMPDEST PUSH2 0x178 JUMP JUMPDEST STOP JUMPDEST PUSH2 0xB8 PUSH1 0x4 DUP1 CALLDATASIZE SUB DUP2 ADD SWAP1 PUSH2 0xB3 SWAP2 SWAP1 PUSH2 0x11C6 JUMP JUMPDEST PUSH2 0x3F4 JUMP JUMPDEST STOP JUMPDEST PUSH2 0xD4 PUSH1 0x4 DUP1 CALLDATASIZE SUB DUP2 ADD SWAP1 PUSH2 0xCF SWAP2 SWAP1 PUSH2 0x1159 JUMP JUMPDEST PUSH2 0x6C0 JUMP JUMPDEST PUSH1 0x40 MLOAD PUSH2 0xE9 SWAP10 SWAP9 SWAP8 SWAP7 SWAP6 SWAP5 SWAP4 SWAP3 SWAP2 SWAP1 PUSH2 0x15D0 JUMP JUMPDEST PUSH1 0x40 MLOAD DUP1 SWAP2 SUB SWAP1 RETURN JUMPDEST PUSH2 0x10C PUSH1 0x4 DUP1 CALLDATASIZE SUB DUP2 ADD SWAP1 PUSH2 0x107 SWAP2 SWAP1 PUSH2 0x1186 JUMP JUMPDEST PUSH2 0x9B0 JUMP JUMPDEST PUSH1 0x40 MLOAD PUSH2 0x119 SWAP2 SWAP1 PUSH2 0x1408 JUMP JUMPDEST PUSH1 0x40 MLOAD DUP1 SWAP2 SUB SWAP1 RETURN JUMPDEST PUSH2 0x13C PUSH1 0x4 DUP1 CALLDATASIZE SUB DUP2 ADD SWAP1 PUSH2 0x137 SWAP2 SWAP1 PUSH2 0x1159 JUMP JUMPDEST PUSH2 0xA6B JUMP JUMPDEST STOP JUMPDEST PUSH2 0x158 PUSH1 0x4 DUP1 CALLDATASIZE SUB DUP2 ADD SWAP1 PUSH2 0x153 SWAP2 SWAP1 PUSH2 0x1159 JUMP JUMPDEST PUSH2 0xC8C JUMP JUMPDEST STOP JUMPDEST PUSH2 0x162 PUSH2 0xF04 JUMP JUMPDEST PUSH1 0x40 MLOAD PUSH2 0x16F SWAP2 SWAP1 PUSH2 0x1563 JUMP JUMPDEST PUSH1 0x40 MLOAD DUP1 SWAP2 SUB SWAP1 RETURN JUMPDEST PUSH1 0x0 DUP8 EQ ISZERO PUSH2 0x1BC JUMPI PUSH1 0x40 MLOAD PUSH32 0x8C379A000000000000000000000000000000000000000000000000000000000 DUP2 MSTORE PUSH1 0x4 ADD PUSH2 0x1B3 SWAP1 PUSH2 0x1423 JUMP JUMPDEST PUSH1 0x40 MLOAD DUP1 SWAP2 SUB SWAP1 REVERT JUMPDEST PUSH1 0x40 MLOAD DUP1 PUSH2 0x180 ADD PUSH1 0x40 MSTORE DUP1 CALLER PUSH20 0xFFFFFFFFFFFFFFFFFFFFFFFFFFFFFFFFFFFFFFFF AND DUP2 MSTORE PUSH1 0x20 ADD DUP9 DUP2 MSTORE PUSH1 0x20 ADD PUSH1 0x0 DUP1 NOT AND DUP2 MSTORE PUSH1 0x20 ADD PUSH1 0x40 MLOAD DUP1 PUSH1 0x20 ADD PUSH1 0x40 MSTORE DUP1 PUSH1 0x0 DUP2 MSTORE POP DUP2 MSTORE PUSH1 0x20 ADD PUSH1 0x0 ISZERO ISZERO DUP2 MSTORE PUSH1 0x20 ADD DUP8 DUP2 MSTORE PUSH1 0x20 ADD DUP7 DUP2 MSTORE PUSH1 0x20 ADD DUP6 DUP2 MSTORE PUSH1 0x20 ADD DUP5 DUP2 MSTORE PUSH1 0x20 ADD DUP4 DUP2 MSTORE PUSH1 0x20 ADD DUP3 DUP2 MSTORE PUSH1 0x20 ADD PUSH1 0x1 ISZERO ISZERO DUP2 MSTORE POP PUSH1 0x0 DUP1 PUSH1 0x1 SLOAD DUP2 MSTORE PUSH1 0x20 ADD SWAP1 DUP2 MSTORE PUSH1 0x20 ADD PUSH1 0x0 KECCAK256 PUSH1 0x0 DUP3 ADD MLOAD DUP2 PUSH1 0x0 ADD PUSH1 0x0 PUSH2 0x100 EXP DUP2 SLOAD DUP2 PUSH20 0xFFFFFFFFFFFFFFFFFFFFFFFFFFFFFFFFFFFFFFFF MUL NOT AND SWAP1 DUP4 PUSH20 0xFFFFFFFFFFFFFFFFFFFFFFFFFFFFFFFFFFFFFFFF AND MUL OR SWAP1 SSTORE POP PUSH1 0x20 DUP3 ADD MLOAD DUP2 PUSH1 0x1 ADD SSTORE PUSH1 0x40 DUP3 ADD MLOAD DUP2 PUSH1 0x2 ADD SSTORE PUSH1 0x60 DUP3 ADD MLOAD DUP2 PUSH1 0x3 ADD SWAP1 DUP1 MLOAD SWAP1 PUSH1 0x20 ADD SWAP1 PUSH2 0x2C8 SWAP3 SWAP2 SWAP1 PUSH2 0xF0A JUMP JUMPDEST POP PUSH1 0x80 DUP3 ADD MLOAD DUP2 PUSH1 0x4 ADD PUSH1 0x0 PUSH2 0x100 EXP DUP2 SLOAD DUP2 PUSH1 0xFF MUL NOT AND SWAP1 DUP4 ISZERO ISZERO MUL OR SWAP1 SSTORE POP PUSH1 0xA0 DUP3 ADD MLOAD DUP2 PUSH1 0x5 ADD SSTORE PUSH1 0xC0 DUP3 ADD MLOAD DUP2 PUSH1 0x6 ADD SWAP1 DUP1 MLOAD SWAP1 PUSH1 0x20 ADD SWAP1 PUSH2 0x30F SWAP3 SWAP2 SWAP1 PUSH2 0xF0A JUMP JUMPDEST POP PUSH1 0xE0 DUP3 ADD MLOAD DUP2 PUSH1 0x7 ADD SWAP1 DUP1 MLOAD SWAP1 PUSH1 0x20 ADD SWAP1 PUSH2 0x32C SWAP3 SWAP2 SWAP1 PUSH2 0xF0A JUMP JUMPDEST POP PUSH2 0x100 DUP3 ADD MLOAD DUP2 PUSH1 0x8 ADD SWAP1 DUP1 MLOAD SWAP1 PUSH1 0x20 ADD SWAP1 PUSH2 0x34A SWAP3 SWAP2 SWAP1 PUSH2 0xF0A JUMP JUMPDEST POP PUSH2 0x120 DUP3 ADD MLOAD DUP2 PUSH1 0x9 ADD SSTORE PUSH2 0x140 DUP3 ADD MLOAD DUP2 PUSH1 0xA ADD SWAP1 DUP1 MLOAD SWAP1 PUSH1 0x20 ADD SWAP1 PUSH2 0x373 SWAP3 SWAP2 SWAP1 PUSH2 0xF0A JUMP JUMPDEST POP PUSH2 0x160 DUP3 ADD MLOAD DUP2 PUSH1 0xB ADD PUSH1 0x0 PUSH2 0x100 EXP DUP2 SLOAD DUP2 PUSH1 0xFF MUL NOT AND SWAP1 DUP4 ISZERO ISZERO MUL OR SWAP1 SSTORE POP SWAP1 POP POP PUSH32 0x4DA35C6AE8D319ADBF7F8227BEEF1CDB68C67E3C3E80E9F6458DE9EDE73F75E2 PUSH1 0x1 SLOAD DUP9 PUSH1 0x40 MLOAD PUSH2 0x3CB SWAP3 SWAP2 SWAP1 PUSH2 0x15A7 JUMP JUMPDEST PUSH1 0x40 MLOAD DUP1 SWAP2 SUB SWAP1 LOG1 PUSH1 0x1 PUSH1 0x0 DUP2 SLOAD DUP1 SWAP3 SWAP2 SWAP1 PUSH2 0x3E6 SWAP1 PUSH2 0x17E2 JUMP JUMPDEST SWAP2 SWAP1 POP SSTORE POP POP POP POP POP POP POP POP JUMP JUMPDEST PUSH1 0x1 SLOAD DUP4 LT PUSH2 0x438 JUMPI PUSH1 0x40 MLOAD PUSH32 0x8C379A000000000000000000000000000000000000000000000000000000000 DUP2 MSTORE PUSH1 0x4 ADD PUSH2 0x42F SWAP1 PUSH2 0x1443 JUMP JUMPDEST PUSH1 0x40 MLOAD DUP1 SWAP2 SUB SWAP1 REVERT JUMPDEST PUSH1 0x0 PUSH20 0xFFFFFFFFFFFFFFFFFFFFFFFFFFFFFFFFFFFFFFFF AND PUSH1 0x0 DUP1 DUP6 DUP2 MSTORE PUSH1 0x20 ADD SWAP1 DUP2 MSTORE PUSH1 0x20 ADD PUSH1 0x0 KECCAK256 PUSH1 0x0 ADD PUSH1 0x0 SWAP1 SLOAD SWAP1 PUSH2 0x100 EXP SWAP1 DIV PUSH20 0xFFFFFFFFFFFFFFFFFFFFFFFFFFFFFFFFFFFFFFFF AND PUSH20 0xFFFFFFFFFFFFFFFFFFFFFFFFFFFFFFFFFFFFFFFF AND EQ ISZERO PUSH2 0x4DD JUMPI PUSH1 0x40 MLOAD PUSH32 0x8C379A000000000000000000000000000000000000000000000000000000000 DUP2 MSTORE PUSH1 0x4 ADD PUSH2 0x4D4 SWAP1 PUSH2 0x14C3 JUMP JUMPDEST PUSH1 0x40 MLOAD DUP1 SWAP2 SUB SWAP1 REVERT JUMPDEST CALLER PUSH20 0xFFFFFFFFFFFFFFFFFFFFFFFFFFFFFFFFFFFFFFFF AND PUSH1 0x0 DUP1 DUP6 DUP2 MSTORE PUSH1 0x20 ADD SWAP1 DUP2 MSTORE PUSH1 0x20 ADD PUSH1 0x0 KECCAK256 PUSH1 0x0 ADD PUSH1 0x0 SWAP1 SLOAD SWAP1 PUSH2 0x100 EXP SWAP1 DIV PUSH20 0xFFFFFFFFFFFFFFFFFFFFFFFFFFFFFFFFFFFFFFFF AND PUSH20 0xFFFFFFFFFFFFFFFFFFFFFFFFFFFFFFFFFFFFFFFF AND EQ ISZERO PUSH2 0x581 JUMPI PUSH1 0x40 MLOAD PUSH32 0x8C379A000000000000000000000000000000000000000000000000000000000 DUP2 MSTORE PUSH1 0x4 ADD PUSH2 0x578 SWAP1 PUSH2 0x1503 JUMP JUMPDEST PUSH1 0x40 MLOAD DUP1 SWAP2 SUB SWAP1 REVERT JUMPDEST PUSH1 0x0 ISZERO ISZERO PUSH1 0x0 DUP1 DUP6 DUP2 MSTORE PUSH1 0x20 ADD SWAP1 DUP2 MSTORE PUSH1 0x20 ADD PUSH1 0x0 KECCAK256 PUSH1 0x4 ADD PUSH1 0x0 SWAP1 SLOAD SWAP1 PUSH2 0x100 EXP SWAP1 DIV PUSH1 0xFF AND ISZERO ISZERO EQ PUSH2 0x5EA JUMPI PUSH1 0x40 MLOAD PUSH32 0x8C379A000000000000000000000000000000000000000000000000000000000 DUP2 MSTORE PUSH1 0x4 ADD PUSH2 0x5E1 SWAP1 PUSH2 0x1523 JUMP JUMPDEST PUSH1 0x40 MLOAD DUP1 SWAP2 SUB SWAP1 REVERT JUMPDEST DUP2 PUSH1 0x0 DUP1 DUP6 DUP2 MSTORE PUSH1 0x20 ADD SWAP1 DUP2 MSTORE PUSH1 0x20 ADD PUSH1 0x0 KECCAK256 PUSH1 0x2 ADD DUP2 SWAP1 SSTORE POP DUP1 PUSH1 0x0 DUP1 DUP6 DUP2 MSTORE PUSH1 0x20 ADD SWAP1 DUP2 MSTORE PUSH1 0x20 ADD PUSH1 0x0 KECCAK256 PUSH1 0x3 ADD SWAP1 DUP1 MLOAD SWAP1 PUSH1 0x20 ADD SWAP1 PUSH2 0x62D SWAP3 SWAP2 SWAP1 PUSH2 0xF0A JUMP JUMPDEST POP CALLER PUSH1 0x0 DUP1 DUP6 DUP2 MSTORE PUSH1 0x20 ADD SWAP1 DUP2 MSTORE PUSH1 0x20 ADD PUSH1 0x0 KECCAK256 PUSH1 0x0 ADD PUSH1 0x0 PUSH2 0x100 EXP DUP2 SLOAD DUP2 PUSH20 0xFFFFFFFFFFFFFFFFFFFFFFFFFFFFFFFFFFFFFFFF MUL NOT AND SWAP1 DUP4 PUSH20 0xFFFFFFFFFFFFFFFFFFFFFFFFFFFFFFFFFFFFFFFF AND MUL OR SWAP1 SSTORE POP PUSH32 0xF3BA6536EEE813FD8130FD5408F2B3C354B7A697E6F31425ABCFCED7440BC712 DUP4 DUP4 PUSH1 0x40 MLOAD PUSH2 0x6B3 SWAP3 SWAP2 SWAP1 PUSH2 0x15A7 JUMP JUMPDEST PUSH1 0x40 MLOAD DUP1 SWAP2 SUB SWAP1 LOG1 POP POP POP JUMP JUMPDEST PUSH1 0x0 PUSH1 0x60 DUP1 PUSH1 0x60 PUSH1 0x0 PUSH1 0x60 PUSH1 0x0 DUP1 PUSH1 0x0 PUSH1 0x1 SLOAD DUP11 LT PUSH2 0x714 JUMPI PUSH1 0x40 MLOAD PUSH32 0x8C379A000000000000000000000000000000000000000000000000000000000 DUP2 MSTORE PUSH1 0x4 ADD PUSH2 0x70B SWAP1 PUSH2 0x1443 JUMP JUMPDEST PUSH1 0x40 MLOAD DUP1 SWAP2 SUB SWAP1 REVERT JUMPDEST PUSH1 0x0 DUP1 PUSH1 0x0 DUP13 DUP2 MSTORE PUSH1 0x20 ADD SWAP1 DUP2 MSTORE PUSH1 0x20 ADD PUSH1 0x0 KECCAK256 SWAP1 POP DUP1 PUSH1 0x5 ADD SLOAD DUP2 PUSH1 0x6 ADD DUP3 PUSH1 0x7 ADD DUP4 PUSH1 0x8 ADD DUP5 PUSH1 0x9 ADD SLOAD DUP6 PUSH1 0xA ADD DUP7 PUSH1 0x1 ADD SLOAD DUP8 PUSH1 0x2 ADD SLOAD DUP9 PUSH1 0xB ADD PUSH1 0x0 SWAP1 SLOAD SWAP1 PUSH2 0x100 EXP SWAP1 DIV PUSH1 0xFF AND DUP8 DUP1 SLOAD PUSH2 0x76C SWAP1 PUSH2 0x177F JUMP JUMPDEST DUP1 PUSH1 0x1F ADD PUSH1 0x20 DUP1 SWAP2 DIV MUL PUSH1 0x20 ADD PUSH1 0x40 MLOAD SWAP1 DUP2 ADD PUSH1 0x40 MSTORE DUP1 SWAP3 SWAP2 SWAP1 DUP2 DUP2 MSTORE PUSH1 0x20 ADD DUP3 DUP1 SLOAD PUSH2 0x798 SWAP1 PUSH2 0x177F JUMP JUMPDEST DUP1 ISZERO PUSH2 0x7E5 JUMPI DUP1 PUSH1 0x1F LT PUSH2 0x7BA JUMPI PUSH2 0x100 DUP1 DUP4 SLOAD DIV MUL DUP4 MSTORE SWAP2 PUSH1 0x20 ADD SWAP2 PUSH2 0x7E5 JUMP JUMPDEST DUP3 ADD SWAP2 SWAP1 PUSH1 0x0 MSTORE PUSH1 0x20 PUSH1 0x0 KECCAK256 SWAP1 JUMPDEST DUP2 SLOAD DUP2 MSTORE SWAP1 PUSH1 0x1 ADD SWAP1 PUSH1 0x20 ADD DUP1 DUP4 GT PUSH2 0x7C8 JUMPI DUP3 SWAP1 SUB PUSH1 0x1F AND DUP3 ADD SWAP2 JUMPDEST POP POP POP POP POP SWAP8 POP DUP7 DUP1 SLOAD PUSH2 0x7F8 SWAP1 PUSH2 0x177F JUMP JUMPDEST DUP1 PUSH1 0x1F ADD PUSH1 0x20 DUP1 SWAP2 DIV MUL PUSH1 0x20 ADD PUSH1 0x40 MLOAD SWAP1 DUP2 ADD PUSH1 0x40 MSTORE DUP1 SWAP3 SWAP2 SWAP1 DUP2 DUP2 MSTORE PUSH1 0x20 ADD DUP3 DUP1 SLOAD PUSH2 0x824 SWAP1 PUSH2 0x177F JUMP JUMPDEST DUP1 ISZERO PUSH2 0x871 JUMPI DUP1 PUSH1 0x1F LT PUSH2 0x846 JUMPI PUSH2 0x100 DUP1 DUP4 SLOAD DIV MUL DUP4 MSTORE SWAP2 PUSH1 0x20 ADD SWAP2 PUSH2 0x871 JUMP JUMPDEST DUP3 ADD SWAP2 SWAP1 PUSH1 0x0 MSTORE PUSH1 0x20 PUSH1 0x0 KECCAK256 SWAP1 JUMPDEST DUP2 SLOAD DUP2 MSTORE SWAP1 PUSH1 0x1 ADD SWAP1 PUSH1 0x20 ADD DUP1 DUP4 GT PUSH2 0x854 JUMPI DUP3 SWAP1 SUB PUSH1 0x1F AND DUP3 ADD SWAP2 JUMPDEST POP POP POP POP POP SWAP7 POP DUP6 DUP1 SLOAD PUSH2 0x884 SWAP1 PUSH2 0x177F JUMP JUMPDEST DUP1 PUSH1 0x1F ADD PUSH1 0x20 DUP1 SWAP2 DIV MUL PUSH1 0x20 ADD PUSH1 0x40 MLOAD SWAP1 DUP2 ADD PUSH1 0x40 MSTORE DUP1 SWAP3 SWAP2 SWAP1 DUP2 DUP2 MSTORE PUSH1 0x20 ADD DUP3 DUP1 SLOAD PUSH2 0x8B0 SWAP1 PUSH2 0x177F JUMP JUMPDEST DUP1 ISZERO PUSH2 0x8FD JUMPI DUP1 PUSH1 0x1F LT PUSH2 0x8D2 JUMPI PUSH2 0x100 DUP1 DUP4 SLOAD DIV MUL DUP4 MSTORE SWAP2 PUSH1 0x20 ADD SWAP2 PUSH2 0x8FD JUMP JUMPDEST DUP3 ADD SWAP2 SWAP1 PUSH1 0x0 MSTORE PUSH1 0x20 PUSH1 0x0 KECCAK256 SWAP1 JUMPDEST DUP2 SLOAD DUP2 MSTORE SWAP1 PUSH1 0x1 ADD SWAP1 PUSH1 0x20 ADD DUP1 DUP4 GT PUSH2 0x8E0 JUMPI DUP3 SWAP1 SUB PUSH1 0x1F AND DUP3 ADD SWAP2 JUMPDEST POP POP POP POP POP SWAP6 POP DUP4 DUP1 SLOAD PUSH2 0x910 SWAP1 PUSH2 0x177F JUMP JUMPDEST DUP1 PUSH1 0x1F ADD PUSH1 0x20 DUP1 SWAP2 DIV MUL PUSH1 0x20 ADD PUSH1 0x40 MLOAD SWAP1 DUP2 ADD PUSH1 0x40 MSTORE DUP1 SWAP3 SWAP2 SWAP1 DUP2 DUP2 MSTORE PUSH1 0x20 ADD DUP3 DUP1 SLOAD PUSH2 0x93C SWAP1 PUSH2 0x177F JUMP JUMPDEST DUP1 ISZERO PUSH2 0x989 JUMPI DUP1 PUSH1 0x1F LT PUSH2 0x95E JUMPI PUSH2 0x100 DUP1 DUP4 SLOAD DIV MUL DUP4 MSTORE SWAP2 PUSH1 0x20 ADD SWAP2 PUSH2 0x989 JUMP JUMPDEST DUP3 ADD SWAP2 SWAP1 PUSH1 0x0 MSTORE PUSH1 0x20 PUSH1 0x0 KECCAK256 SWAP1 JUMPDEST DUP2 SLOAD DUP2 MSTORE SWAP1 PUSH1 0x1 ADD SWAP1 PUSH1 0x20 ADD DUP1 DUP4 GT PUSH2 0x96C JUMPI DUP3 SWAP1 SUB PUSH1 0x1F AND DUP3 ADD SWAP2 JUMPDEST POP POP POP POP POP SWAP4 POP SWAP10 POP SWAP10 POP SWAP10 POP SWAP10 POP SWAP10 POP SWAP10 POP SWAP10 POP SWAP10 POP SWAP10 POP POP SWAP2 SWAP4 SWAP6 SWAP8 SWAP10 SWAP1 SWAP3 SWAP5 SWAP7 SWAP9 POP JUMP JUMPDEST PUSH1 0x0 PUSH1 0x1 SLOAD DUP4 LT PUSH2 0x9F6 JUMPI PUSH1 0x40 MLOAD PUSH32 0x8C379A000000000000000000000000000000000000000000000000000000000 DUP2 MSTORE PUSH1 0x4 ADD PUSH2 0x9ED SWAP1 PUSH2 0x1443 JUMP JUMPDEST PUSH1 0x40 MLOAD DUP1 SWAP2 SUB SWAP1 REVERT JUMPDEST DUP2 PUSH1 0x0 DUP1 DUP6 DUP2 MSTORE PUSH1 0x20 ADD SWAP1 DUP2 MSTORE PUSH1 0x20 ADD PUSH1 0x0 KECCAK256 PUSH1 0x2 ADD SLOAD EQ PUSH2 0xA4D JUMPI PUSH1 0x40 MLOAD PUSH32 0x8C379A000000000000000000000000000000000000000000000000000000000 DUP2 MSTORE PUSH1 0x4 ADD PUSH2 0xA44 SWAP1 PUSH2 0x1543 JUMP JUMPDEST PUSH1 0x40 MLOAD DUP1 SWAP2 SUB SWAP1 REVERT JUMPDEST PUSH1 0x0 DUP1 DUP5 DUP2 MSTORE PUSH1 0x20 ADD SWAP1 DUP2 MSTORE PUSH1 0x20 ADD PUSH1 0x0 KECCAK256 PUSH1 0x1 ADD SLOAD SWAP1 POP SWAP3 SWAP2 POP POP JUMP JUMPDEST PUSH1 0x1 SLOAD DUP2 LT PUSH2 0xAAF JUMPI PUSH1 0x40 MLOAD PUSH32 0x8C379A000000000000000000000000000000000000000000000000000000000 DUP2 MSTORE PUSH1 0x4 ADD PUSH2 0xAA6 SWAP1 PUSH2 0x1443 JUMP JUMPDEST PUSH1 0x40 MLOAD DUP1 SWAP2 SUB SWAP1 REVERT JUMPDEST CALLER PUSH20 0xFFFFFFFFFFFFFFFFFFFFFFFFFFFFFFFFFFFFFFFF AND PUSH1 0x0 DUP1 DUP4 DUP2 MSTORE PUSH1 0x20 ADD SWAP1 DUP2 MSTORE PUSH1 0x20 ADD PUSH1 0x0 KECCAK256 PUSH1 0x0 ADD PUSH1 0x0 SWAP1 SLOAD SWAP1 PUSH2 0x100 EXP SWAP1 DIV PUSH20 0xFFFFFFFFFFFFFFFFFFFFFFFFFFFFFFFFFFFFFFFF AND PUSH20 0xFFFFFFFFFFFFFFFFFFFFFFFFFFFFFFFFFFFFFFFF AND EQ PUSH2 0xB52 JUMPI PUSH1 0x40 MLOAD PUSH32 0x8C379A000000000000000000000000000000000000000000000000000000000 DUP2 MSTORE PUSH1 0x4 ADD PUSH2 0xB49 SWAP1 PUSH2 0x1483 JUMP JUMPDEST PUSH1 0x40 MLOAD DUP1 SWAP2 SUB SWAP1 REVERT JUMPDEST PUSH1 0x0 ISZERO ISZERO PUSH1 0x0 DUP1 DUP4 DUP2 MSTORE PUSH1 0x20 ADD SWAP1 DUP2 MSTORE PUSH1 0x20 ADD PUSH1 0x0 KECCAK256 PUSH1 0x4 ADD PUSH1 0x0 SWAP1 SLOAD SWAP1 PUSH2 0x100 EXP SWAP1 DIV PUSH1 0xFF AND ISZERO ISZERO EQ PUSH2 0xBBB JUMPI PUSH1 0x40 MLOAD PUSH32 0x8C379A000000000000000000000000000000000000000000000000000000000 DUP2 MSTORE PUSH1 0x4 ADD PUSH2 0xBB2 SWAP1 PUSH2 0x14E3 JUMP JUMPDEST PUSH1 0x40 MLOAD DUP1 SWAP2 SUB SWAP1 REVERT JUMPDEST PUSH1 0x1 ISZERO ISZERO PUSH1 0x0 DUP1 DUP4 DUP2 MSTORE PUSH1 0x20 ADD SWAP1 DUP2 MSTORE PUSH1 0x20 ADD PUSH1 0x0 KECCAK256 PUSH1 0xB ADD PUSH1 0x0 SWAP1 SLOAD SWAP1 PUSH2 0x100 EXP SWAP1 DIV PUSH1 0xFF AND ISZERO ISZERO EQ PUSH2 0xC24 JUMPI PUSH1 0x40 MLOAD PUSH32 0x8C379A000000000000000000000000000000000000000000000000000000000 DUP2 MSTORE PUSH1 0x4 ADD PUSH2 0xC1B SWAP1 PUSH2 0x14C3 JUMP JUMPDEST PUSH1 0x40 MLOAD DUP1 SWAP2 SUB SWAP1 REVERT JUMPDEST PUSH1 0x1 PUSH1 0x0 DUP1 DUP4 DUP2 MSTORE PUSH1 0x20 ADD SWAP1 DUP2 MSTORE PUSH1 0x20 ADD PUSH1 0x0 KECCAK256 PUSH1 0x4 ADD PUSH1 0x0 PUSH2 0x100 EXP DUP2 SLOAD DUP2 PUSH1 0xFF MUL NOT AND SWAP1 DUP4 ISZERO ISZERO MUL OR SWAP1 SSTORE POP PUSH32 0xA6ADA7551F33CD4D1A41B44D79167050D0B49488F4FB78205F5D9DC235139C85 DUP2 PUSH1 0x40 MLOAD PUSH2 0xC81 SWAP2 SWAP1 PUSH2 0x1563 JUMP JUMPDEST PUSH1 0x40 MLOAD DUP1 SWAP2 SUB SWAP1 LOG1 POP JUMP JUMPDEST PUSH1 0x1 SLOAD DUP2 LT PUSH2 0xCD0 JUMPI PUSH1 0x40 MLOAD PUSH32 0x8C379A000000000000000000000000000000000000000000000000000000000 DUP2 MSTORE PUSH1 0x4 ADD PUSH2 0xCC7 SWAP1 PUSH2 0x1443 JUMP JUMPDEST PUSH1 0x40 MLOAD DUP1 SWAP2 SUB SWAP1 REVERT JUMPDEST CALLER PUSH20 0xFFFFFFFFFFFFFFFFFFFFFFFFFFFFFFFFFFFFFFFF AND PUSH1 0x0 DUP1 DUP4 DUP2 MSTORE PUSH1 0x20 ADD SWAP1 DUP2 MSTORE PUSH1 0x20 ADD PUSH1 0x0 KECCAK256 PUSH1 0x0 ADD PUSH1 0x0 SWAP1 SLOAD SWAP1 PUSH2 0x100 EXP SWAP1 DIV PUSH20 0xFFFFFFFFFFFFFFFFFFFFFFFFFFFFFFFFFFFFFFFF AND PUSH20 0xFFFFFFFFFFFFFFFFFFFFFFFFFFFFFFFFFFFFFFFF AND EQ ISZERO PUSH2 0xD74 JUMPI PUSH1 0x40 MLOAD PUSH32 0x8C379A000000000000000000000000000000000000000000000000000000000 DUP2 MSTORE PUSH1 0x4 ADD PUSH2 0xD6B SWAP1 PUSH2 0x1463 JUMP JUMPDEST PUSH1 0x40 MLOAD DUP1 SWAP2 SUB SWAP1 REVERT JUMPDEST PUSH1 0x1 ISZERO ISZERO PUSH1 0x0 DUP1 DUP4 DUP2 MSTORE PUSH1 0x20 ADD SWAP1 DUP2 MSTORE PUSH1 0x20 ADD PUSH1 0x0 KECCAK256 PUSH1 0x4 ADD PUSH1 0x0 SWAP1 SLOAD SWAP1 PUSH2 0x100 EXP SWAP1 DIV PUSH1 0xFF AND ISZERO ISZERO EQ PUSH2 0xDDD JUMPI PUSH1 0x40 MLOAD PUSH32 0x8C379A000000000000000000000000000000000000000000000000000000000 DUP2 MSTORE PUSH1 0x4 ADD PUSH2 0xDD4 SWAP1 PUSH2 0x14A3 JUMP JUMPDEST PUSH1 0x40 MLOAD DUP1 SWAP2 SUB SWAP1 REVERT JUMPDEST PUSH1 0x1 ISZERO ISZERO PUSH1 0x0 DUP1 DUP4 DUP2 MSTORE PUSH1 0x20 ADD SWAP1 DUP2 MSTORE PUSH1 0x20 ADD PUSH1 0x0 KECCAK256 PUSH1 0xB ADD PUSH1 0x0 SWAP1 SLOAD SWAP1 PUSH2 0x100 EXP SWAP1 DIV PUSH1 0xFF AND ISZERO ISZERO EQ PUSH2 0xE46 JUMPI PUSH1 0x40 MLOAD PUSH32 0x8C379A000000000000000000000000000000000000000000000000000000000 DUP2 MSTORE PUSH1 0x4 ADD PUSH2 0xE3D SWAP1 PUSH2 0x14C3 JUMP JUMPDEST PUSH1 0x40 MLOAD DUP1 SWAP2 SUB SWAP1 REVERT JUMPDEST CALLER PUSH1 0x0 DUP1 DUP4 DUP2 MSTORE PUSH1 0x20 ADD SWAP1 DUP2 MSTORE PUSH1 0x20 ADD PUSH1 0x0 KECCAK256 PUSH1 0x0 ADD PUSH1 0x0 PUSH2 0x100 EXP DUP2 SLOAD DUP2 PUSH20 0xFFFFFFFFFFFFFFFFFFFFFFFFFFFFFFFFFFFFFFFF MUL NOT AND SWAP1 DUP4 PUSH20 0xFFFFFFFFFFFFFFFFFFFFFFFFFFFFFFFFFFFFFFFF AND MUL OR SWAP1 SSTORE POP PUSH1 0x0 DUP1 PUSH1 0x0 DUP4 DUP2 MSTORE PUSH1 0x20 ADD SWAP1 DUP2 MSTORE PUSH1 0x20 ADD PUSH1 0x0 KECCAK256 PUSH1 0x4 ADD PUSH1 0x0 PUSH2 0x100 EXP DUP2 SLOAD DUP2 PUSH1 0xFF MUL NOT AND SWAP1 DUP4 ISZERO ISZERO MUL OR SWAP1 SSTORE POP PUSH32 0x676A22D8B040BEC57D0E46F9DBF75342968434CD540C2042D892CA2D096DD711 DUP2 CALLER PUSH1 0x40 MLOAD PUSH2 0xEF9 SWAP3 SWAP2 SWAP1 PUSH2 0x157E JUMP JUMPDEST PUSH1 0x40 MLOAD DUP1 SWAP2 SUB SWAP1 LOG1 POP JUMP JUMPDEST PUSH1 0x1 SLOAD DUP2 JUMP JUMPDEST DUP3 DUP1 SLOAD PUSH2 0xF16 SWAP1 PUSH2 0x177F JUMP JUMPDEST SWAP1 PUSH1 0x0 MSTORE PUSH1 0x20 PUSH1 0x0 KECCAK256 SWAP1 PUSH1 0x1F ADD PUSH1 0x20 SWAP1 DIV DUP2 ADD SWAP3 DUP3 PUSH2 0xF38 JUMPI PUSH1 0x0 DUP6 SSTORE PUSH2 0xF7F JUMP JUMPDEST DUP3 PUSH1 0x1F LT PUSH2 0xF51 JUMPI DUP1 MLOAD PUSH1 0xFF NOT AND DUP4 DUP1 ADD OR DUP6 SSTORE PUSH2 0xF7F JUMP JUMPDEST DUP3 DUP1 ADD PUSH1 0x1 ADD DUP6 SSTORE DUP3 ISZERO PUSH2 0xF7F JUMPI SWAP2 DUP3 ADD JUMPDEST DUP3 DUP2 GT ISZERO PUSH2 0xF7E JUMPI DUP3 MLOAD DUP3 SSTORE SWAP2 PUSH1 0x20 ADD SWAP2 SWAP1 PUSH1 0x1 ADD SWAP1 PUSH2 0xF63 JUMP JUMPDEST JUMPDEST POP SWAP1 POP PUSH2 0xF8C SWAP2 SWAP1 PUSH2 0xF90 JUMP JUMPDEST POP SWAP1 JUMP JUMPDEST JUMPDEST DUP1 DUP3 GT ISZERO PUSH2 0xFA9 JUMPI PUSH1 0x0 DUP2 PUSH1 0x0 SWAP1 SSTORE POP PUSH1 0x1 ADD PUSH2 0xF91 JUMP JUMPDEST POP SWAP1 JUMP JUMPDEST PUSH1 0x0 PUSH2 0xFC0 PUSH2 0xFBB DUP5 PUSH2 0x169E JUMP JUMPDEST PUSH2 0x1679 JUMP JUMPDEST SWAP1 POP DUP3 DUP2 MSTORE PUSH1 0x20 DUP2 ADD DUP5 DUP5 DUP5 ADD GT ISZERO PUSH2 0xFDC JUMPI PUSH2 0xFDB PUSH2 0x18BD JUMP JUMPDEST JUMPDEST PUSH2 0xFE7 DUP5 DUP3 DUP6 PUSH2 0x173D JUMP JUMPDEST POP SWAP4 SWAP3 POP POP POP JUMP JUMPDEST PUSH1 0x0 DUP2 CALLDATALOAD SWAP1 POP PUSH2 0xFFE DUP2 PUSH2 0x1AE9 JUMP JUMPDEST SWAP3 SWAP2 POP POP JUMP JUMPDEST PUSH1 0x0 DUP3 PUSH1 0x1F DUP4 ADD SLT PUSH2 0x1019 JUMPI PUSH2 0x1018 PUSH2 0x18B8 JUMP JUMPDEST JUMPDEST DUP2 CALLDATALOAD PUSH2 0x1029 DUP5 DUP3 PUSH1 0x20 DUP7 ADD PUSH2 0xFAD JUMP JUMPDEST SWAP2 POP POP SWAP3 SWAP2 POP POP JUMP JUMPDEST PUSH1 0x0 DUP2 CALLDATALOAD SWAP1 POP PUSH2 0x1041 DUP2 PUSH2 0x1B00 JUMP JUMPDEST SWAP3 SWAP2 POP POP JUMP JUMPDEST PUSH1 0x0 DUP1 PUSH1 0x0 DUP1 PUSH1 0x0 DUP1 PUSH1 0x0 PUSH1 0xE0 DUP9 DUP11 SUB SLT ISZERO PUSH2 0x1066 JUMPI PUSH2 0x1065 PUSH2 0x18C7 JUMP JUMPDEST JUMPDEST PUSH1 0x0 PUSH2 0x1074 DUP11 DUP3 DUP12 ADD PUSH2 0xFEF JUMP JUMPDEST SWAP8 POP POP PUSH1 0x20 PUSH2 0x1085 DUP11 DUP3 DUP12 ADD PUSH2 0x1032 JUMP JUMPDEST SWAP7 POP POP PUSH1 0x40 DUP9 ADD CALLDATALOAD PUSH8 0xFFFFFFFFFFFFFFFF DUP2 GT ISZERO PUSH2 0x10A6 JUMPI PUSH2 0x10A5 PUSH2 0x18C2 JUMP JUMPDEST JUMPDEST PUSH2 0x10B2 DUP11 DUP3 DUP12 ADD PUSH2 0x1004 JUMP JUMPDEST SWAP6 POP POP PUSH1 0x60 DUP9 ADD CALLDATALOAD PUSH8 0xFFFFFFFFFFFFFFFF DUP2 GT ISZERO PUSH2 0x10D3 JUMPI PUSH2 0x10D2 PUSH2 0x18C2 JUMP JUMPDEST JUMPDEST PUSH2 0x10DF DUP11 DUP3 DUP12 ADD PUSH2 0x1004 JUMP JUMPDEST SWAP5 POP POP PUSH1 0x80 DUP9 ADD CALLDATALOAD PUSH8 0xFFFFFFFFFFFFFFFF DUP2 GT ISZERO PUSH2 0x1100 JUMPI PUSH2 0x10FF PUSH2 0x18C2 JUMP JUMPDEST JUMPDEST PUSH2 0x110C DUP11 DUP3 DUP12 ADD PUSH2 0x1004 JUMP JUMPDEST SWAP4 POP POP PUSH1 0xA0 PUSH2 0x111D DUP11 DUP3 DUP12 ADD PUSH2 0x1032 JUMP JUMPDEST SWAP3 POP POP PUSH1 0xC0 DUP9 ADD CALLDATALOAD PUSH8 0xFFFFFFFFFFFFFFFF DUP2 GT ISZERO PUSH2 0x113E JUMPI PUSH2 0x113D PUSH2 0x18C2 JUMP JUMPDEST JUMPDEST PUSH2 0x114A DUP11 DUP3 DUP12 ADD PUSH2 0x1004 JUMP JUMPDEST SWAP2 POP POP SWAP3 SWAP6 SWAP9 SWAP2 SWAP5 SWAP8 POP SWAP3 SWAP6 POP JUMP JUMPDEST PUSH1 0x0 PUSH1 0x20 DUP3 DUP5 SUB SLT ISZERO PUSH2 0x116F JUMPI PUSH2 0x116E PUSH2 0x18C7 JUMP JUMPDEST JUMPDEST PUSH1 0x0 PUSH2 0x117D DUP5 DUP3 DUP6 ADD PUSH2 0x1032 JUMP JUMPDEST SWAP2 POP POP SWAP3 SWAP2 POP POP JUMP JUMPDEST PUSH1 0x0 DUP1 PUSH1 0x40 DUP4 DUP6 SUB SLT ISZERO PUSH2 0x119D JUMPI PUSH2 0x119C PUSH2 0x18C7 JUMP JUMPDEST JUMPDEST PUSH1 0x0 PUSH2 0x11AB DUP6 DUP3 DUP7 ADD PUSH2 0x1032 JUMP JUMPDEST SWAP3 POP POP PUSH1 0x20 PUSH2 0x11BC DUP6 DUP3 DUP7 ADD PUSH2 0xFEF JUMP JUMPDEST SWAP2 POP POP SWAP3 POP SWAP3 SWAP1 POP JUMP JUMPDEST PUSH1 0x0 DUP1 PUSH1 0x0 PUSH1 0x60 DUP5 DUP7 SUB SLT ISZERO PUSH2 0x11DF JUMPI PUSH2 0x11DE PUSH2 0x18C7 JUMP JUMPDEST JUMPDEST PUSH1 0x0 PUSH2 0x11ED DUP7 DUP3 DUP8 ADD PUSH2 0x1032 JUMP JUMPDEST SWAP4 POP POP PUSH1 0x20 PUSH2 0x11FE DUP7 DUP3 DUP8 ADD PUSH2 0xFEF JUMP JUMPDEST SWAP3 POP POP PUSH1 0x40 DUP5 ADD CALLDATALOAD PUSH8 0xFFFFFFFFFFFFFFFF DUP2 GT ISZERO PUSH2 0x121F JUMPI PUSH2 0x121E PUSH2 0x18C2 JUMP JUMPDEST JUMPDEST PUSH2 0x122B DUP7 DUP3 DUP8 ADD PUSH2 0x1004 JUMP JUMPDEST SWAP2 POP POP SWAP3 POP SWAP3 POP SWAP3 JUMP JUMPDEST PUSH2 0x123E DUP2 PUSH2 0x16EB JUMP JUMPDEST DUP3 MSTORE POP POP JUMP JUMPDEST PUSH2 0x124D DUP2 PUSH2 0x16FD JUMP JUMPDEST DUP3 MSTORE POP POP JUMP JUMPDEST PUSH2 0x125C DUP2 PUSH2 0x1709 JUMP JUMPDEST DUP3 MSTORE POP POP JUMP JUMPDEST PUSH1 0x0 PUSH2 0x126D DUP3 PUSH2 0x16CF JUMP JUMPDEST PUSH2 0x1277 DUP2 DUP6 PUSH2 0x16DA JUMP JUMPDEST SWAP4 POP PUSH2 0x1287 DUP2 DUP6 PUSH1 0x20 DUP7 ADD PUSH2 0x174C JUMP JUMPDEST PUSH2 0x1290 DUP2 PUSH2 0x18CC JUMP JUMPDEST DUP5 ADD SWAP2 POP POP SWAP3 SWAP2 POP POP JUMP JUMPDEST PUSH1 0x0 PUSH2 0x12A8 PUSH1 0x1A DUP4 PUSH2 0x16DA JUMP JUMPDEST SWAP2 POP PUSH2 0x12B3 DUP3 PUSH2 0x18DD JUMP JUMPDEST PUSH1 0x20 DUP3 ADD SWAP1 POP SWAP2 SWAP1 POP JUMP JUMPDEST PUSH1 0x0 PUSH2 0x12CB PUSH1 0x17 DUP4 PUSH2 0x16DA JUMP JUMPDEST SWAP2 POP PUSH2 0x12D6 DUP3 PUSH2 0x1906 JUMP JUMPDEST PUSH1 0x20 DUP3 ADD SWAP1 POP SWAP2 SWAP1 POP JUMP JUMPDEST PUSH1 0x0 PUSH2 0x12EE PUSH1 0x23 DUP4 PUSH2 0x16DA JUMP JUMPDEST SWAP2 POP PUSH2 0x12F9 DUP3 PUSH2 0x192F JUMP JUMPDEST PUSH1 0x40 DUP3 ADD SWAP1 POP SWAP2 SWAP1 POP JUMP JUMPDEST PUSH1 0x0 PUSH2 0x1311 PUSH1 0x32 DUP4 PUSH2 0x16DA JUMP JUMPDEST SWAP2 POP PUSH2 0x131C DUP3 PUSH2 0x197E JUMP JUMPDEST PUSH1 0x40 DUP3 ADD SWAP1 POP SWAP2 SWAP1 POP JUMP JUMPDEST PUSH1 0x0 PUSH2 0x1334 PUSH1 0x1F DUP4 PUSH2 0x16DA JUMP JUMPDEST SWAP2 POP PUSH2 0x133F DUP3 PUSH2 0x19CD JUMP JUMPDEST PUSH1 0x20 DUP3 ADD SWAP1 POP SWAP2 SWAP1 POP JUMP JUMPDEST PUSH1 0x0 PUSH2 0x1357 PUSH1 0x17 DUP4 PUSH2 0x16DA JUMP JUMPDEST SWAP2 POP PUSH2 0x1362 DUP3 PUSH2 0x19F6 JUMP JUMPDEST PUSH1 0x20 DUP3 ADD SWAP1 POP SWAP2 SWAP1 POP JUMP JUMPDEST PUSH1 0x0 PUSH2 0x137A PUSH1 0x23 DUP4 PUSH2 0x16DA JUMP JUMPDEST SWAP2 POP PUSH2 0x1385 DUP3 PUSH2 0x1A1F JUMP JUMPDEST PUSH1 0x40 DUP3 ADD SWAP1 POP SWAP2 SWAP1 POP JUMP JUMPDEST PUSH1 0x0 PUSH2 0x139D PUSH1 0x1A DUP4 PUSH2 0x16DA JUMP JUMPDEST SWAP2 POP PUSH2 0x13A8 DUP3 PUSH2 0x1A6E JUMP JUMPDEST PUSH1 0x20 DUP3 ADD SWAP1 POP SWAP2 SWAP1 POP JUMP JUMPDEST PUSH1 0x0 PUSH2 0x13C0 PUSH1 0x1B DUP4 PUSH2 0x16DA JUMP JUMPDEST SWAP2 POP PUSH2 0x13CB DUP3 PUSH2 0x1A97 JUMP JUMPDEST PUSH1 0x20 DUP3 ADD SWAP1 POP SWAP2 SWAP1 POP JUMP JUMPDEST PUSH1 0x0 PUSH2 0x13E3 PUSH1 0x14 DUP4 PUSH2 0x16DA JUMP JUMPDEST SWAP2 POP PUSH2 0x13EE DUP3 PUSH2 0x1AC0 JUMP JUMPDEST PUSH1 0x20 DUP3 ADD SWAP1 POP SWAP2 SWAP1 POP JUMP JUMPDEST PUSH2 0x1402 DUP2 PUSH2 0x1733 JUMP JUMPDEST DUP3 MSTORE POP POP JUMP JUMPDEST PUSH1 0x0 PUSH1 0x20 DUP3 ADD SWAP1 POP PUSH2 0x141D PUSH1 0x0 DUP4 ADD DUP5 PUSH2 0x1253 JUMP JUMPDEST SWAP3 SWAP2 POP POP JUMP JUMPDEST PUSH1 0x0 PUSH1 0x20 DUP3 ADD SWAP1 POP DUP2 DUP2 SUB PUSH1 0x0 DUP4 ADD MSTORE PUSH2 0x143C DUP2 PUSH2 0x129B JUMP JUMPDEST SWAP1 POP SWAP2 SWAP1 POP JUMP JUMPDEST PUSH1 0x0 PUSH1 0x20 DUP3 ADD SWAP1 POP DUP2 DUP2 SUB PUSH1 0x0 DUP4 ADD MSTORE PUSH2 0x145C DUP2 PUSH2 0x12BE JUMP JUMPDEST SWAP1 POP SWAP2 SWAP1 POP JUMP JUMPDEST PUSH1 0x0 PUSH1 0x20 DUP3 ADD SWAP1 POP DUP2 DUP2 SUB PUSH1 0x0 DUP4 ADD MSTORE PUSH2 0x147C DUP2 PUSH2 0x12E1 JUMP JUMPDEST SWAP1 POP SWAP2 SWAP1 POP JUMP JUMPDEST PUSH1 0x0 PUSH1 0x20 DUP3 ADD SWAP1 POP DUP2 DUP2 SUB PUSH1 0x0 DUP4 ADD MSTORE PUSH2 0x149C DUP2 PUSH2 0x1304 JUMP JUMPDEST SWAP1 POP SWAP2 SWAP1 POP JUMP JUMPDEST PUSH1 0x0 PUSH1 0x20 DUP3 ADD SWAP1 POP DUP2 DUP2 SUB PUSH1 0x0 DUP4 ADD MSTORE PUSH2 0x14BC DUP2 PUSH2 0x1327 JUMP JUMPDEST SWAP1 POP SWAP2 SWAP1 POP JUMP JUMPDEST PUSH1 0x0 PUSH1 0x20 DUP3 ADD SWAP1 POP DUP2 DUP2 SUB PUSH1 0x0 DUP4 ADD MSTORE PUSH2 0x14DC DUP2 PUSH2 0x134A JUMP JUMPDEST SWAP1 POP SWAP2 SWAP1 POP JUMP JUMPDEST PUSH1 0x0 PUSH1 0x20 DUP3 ADD SWAP1 POP DUP2 DUP2 SUB PUSH1 0x0 DUP4 ADD MSTORE PUSH2 0x14FC DUP2 PUSH2 0x136D JUMP JUMPDEST SWAP1 POP SWAP2 SWAP1 POP JUMP JUMPDEST PUSH1 0x0 PUSH1 0x20 DUP3 ADD SWAP1 POP DUP2 DUP2 SUB PUSH1 0x0 DUP4 ADD MSTORE PUSH2 0x151C DUP2 PUSH2 0x1390 JUMP JUMPDEST SWAP1 POP SWAP2 SWAP1 POP JUMP JUMPDEST PUSH1 0x0 PUSH1 0x20 DUP3 ADD SWAP1 POP DUP2 DUP2 SUB PUSH1 0x0 DUP4 ADD MSTORE PUSH2 0x153C DUP2 PUSH2 0x13B3 JUMP JUMPDEST SWAP1 POP SWAP2 SWAP1 POP JUMP JUMPDEST PUSH1 0x0 PUSH1 0x20 DUP3 ADD SWAP1 POP DUP2 DUP2 SUB PUSH1 0x0 DUP4 ADD MSTORE PUSH2 0x155C DUP2 PUSH2 0x13D6 JUMP JUMPDEST SWAP1 POP SWAP2 SWAP1 POP JUMP JUMPDEST PUSH1 0x0 PUSH1 0x20 DUP3 ADD SWAP1 POP PUSH2 0x1578 PUSH1 0x0 DUP4 ADD DUP5 PUSH2 0x13F9 JUMP JUMPDEST SWAP3 SWAP2 POP POP JUMP JUMPDEST PUSH1 0x0 PUSH1 0x40 DUP3 ADD SWAP1 POP PUSH2 0x1593 PUSH1 0x0 DUP4 ADD DUP6 PUSH2 0x13F9 JUMP JUMPDEST PUSH2 0x15A0 PUSH1 0x20 DUP4 ADD DUP5 PUSH2 0x1235 JUMP JUMPDEST SWAP4 SWAP3 POP POP POP JUMP JUMPDEST PUSH1 0x0 PUSH1 0x40 DUP3 ADD SWAP1 POP PUSH2 0x15BC PUSH1 0x0 DUP4 ADD DUP6 PUSH2 0x13F9 JUMP JUMPDEST PUSH2 0x15C9 PUSH1 0x20 DUP4 ADD DUP5 PUSH2 0x1253 JUMP JUMPDEST SWAP4 SWAP3 POP POP POP JUMP JUMPDEST PUSH1 0x0 PUSH2 0x120 DUP3 ADD SWAP1 POP PUSH2 0x15E6 PUSH1 0x0 DUP4 ADD DUP13 PUSH2 0x13F9 JUMP JUMPDEST DUP2 DUP2 SUB PUSH1 0x20 DUP4 ADD MSTORE PUSH2 0x15F8 DUP2 DUP12 PUSH2 0x1262 JUMP JUMPDEST SWAP1 POP DUP2 DUP2 SUB PUSH1 0x40 DUP4 ADD MSTORE PUSH2 0x160C DUP2 DUP11 PUSH2 0x1262 JUMP JUMPDEST SWAP1 POP DUP2 DUP2 SUB PUSH1 0x60 DUP4 ADD MSTORE PUSH2 0x1620 DUP2 DUP10 PUSH2 0x1262 JUMP JUMPDEST SWAP1 POP PUSH2 0x162F PUSH1 0x80 DUP4 ADD DUP9 PUSH2 0x13F9 JUMP JUMPDEST DUP2 DUP2 SUB PUSH1 0xA0 DUP4 ADD MSTORE PUSH2 0x1641 DUP2 DUP8 PUSH2 0x1262 JUMP JUMPDEST SWAP1 POP PUSH2 0x1650 PUSH1 0xC0 DUP4 ADD DUP7 PUSH2 0x1253 JUMP JUMPDEST PUSH2 0x165D PUSH1 0xE0 DUP4 ADD DUP6 PUSH2 0x1253 JUMP JUMPDEST PUSH2 0x166B PUSH2 0x100 DUP4 ADD DUP5 PUSH2 0x1244 JUMP JUMPDEST SWAP11 SWAP10 POP POP POP POP POP POP POP POP POP POP JUMP JUMPDEST PUSH1 0x0 PUSH2 0x1683 PUSH2 0x1694 JUMP JUMPDEST SWAP1 POP PUSH2 0x168F DUP3 DUP3 PUSH2 0x17B1 JUMP JUMPDEST SWAP2 SWAP1 POP JUMP JUMPDEST PUSH1 0x0 PUSH1 0x40 MLOAD SWAP1 POP SWAP1 JUMP JUMPDEST PUSH1 0x0 PUSH8 0xFFFFFFFFFFFFFFFF DUP3 GT ISZERO PUSH2 0x16B9 JUMPI PUSH2 0x16B8 PUSH2 0x1889 JUMP JUMPDEST JUMPDEST PUSH2 0x16C2 DUP3 PUSH2 0x18CC JUMP JUMPDEST SWAP1 POP PUSH1 0x20 DUP2 ADD SWAP1 POP SWAP2 SWAP1 POP JUMP JUMPDEST PUSH1 0x0 DUP2 MLOAD SWAP1 POP SWAP2 SWAP1 POP JUMP JUMPDEST PUSH1 0x0 DUP3 DUP3 MSTORE PUSH1 0x20 DUP3 ADD SWAP1 POP SWAP3 SWAP2 POP POP JUMP JUMPDEST PUSH1 0x0 PUSH2 0x16F6 DUP3 PUSH2 0x1713 JUMP JUMPDEST SWAP1 POP SWAP2 SWAP1 POP JUMP JUMPDEST PUSH1 0x0 DUP2 ISZERO ISZERO SWAP1 POP SWAP2 SWAP1 POP JUMP JUMPDEST PUSH1 0x0 DUP2 SWAP1 POP SWAP2 SWAP1 POP JUMP JUMPDEST PUSH1 0x0 PUSH20 0xFFFFFFFFFFFFFFFFFFFFFFFFFFFFFFFFFFFFFFFF DUP3 AND SWAP1 POP SWAP2 SWAP1 POP JUMP JUMPDEST PUSH1 0x0 DUP2 SWAP1 POP SWAP2 SWAP1 POP JUMP JUMPDEST DUP3 DUP2 DUP4 CALLDATACOPY PUSH1 0x0 DUP4 DUP4 ADD MSTORE POP POP POP JUMP JUMPDEST PUSH1 0x0 JUMPDEST DUP4 DUP2 LT ISZERO PUSH2 0x176A JUMPI DUP1 DUP3 ADD MLOAD DUP2 DUP5 ADD MSTORE PUSH1 0x20 DUP2 ADD SWAP1 POP PUSH2 0x174F JUMP JUMPDEST DUP4 DUP2 GT ISZERO PUSH2 0x1779 JUMPI PUSH1 0x0 DUP5 DUP5 ADD MSTORE JUMPDEST POP POP POP POP JUMP JUMPDEST PUSH1 0x0 PUSH1 0x2 DUP3 DIV SWAP1 POP PUSH1 0x1 DUP3 AND DUP1 PUSH2 0x1797 JUMPI PUSH1 0x7F DUP3 AND SWAP2 POP JUMPDEST PUSH1 0x20 DUP3 LT DUP2 EQ ISZERO PUSH2 0x17AB JUMPI PUSH2 0x17AA PUSH2 0x185A JUMP JUMPDEST JUMPDEST POP SWAP2 SWAP1 POP JUMP JUMPDEST PUSH2 0x17BA DUP3 PUSH2 0x18CC JUMP JUMPDEST DUP2 ADD DUP2 DUP2 LT PUSH8 0xFFFFFFFFFFFFFFFF DUP3 GT OR ISZERO PUSH2 0x17D9 JUMPI PUSH2 0x17D8 PUSH2 0x1889 JUMP JUMPDEST JUMPDEST DUP1 PUSH1 0x40 MSTORE POP POP POP JUMP JUMPDEST PUSH1 0x0 PUSH2 0x17ED DUP3 PUSH2 0x1733 JUMP JUMPDEST SWAP2 POP PUSH32 0xFFFFFFFFFFFFFFFFFFFFFFFFFFFFFFFFFFFFFFFFFFFFFFFFFFFFFFFFFFFFFFFF DUP3 EQ ISZERO PUSH2 0x1820 JUMPI PUSH2 0x181F PUSH2 0x182B JUMP JUMPDEST JUMPDEST PUSH1 0x1 DUP3 ADD SWAP1 POP SWAP2 SWAP1 POP JUMP JUMPDEST PUSH32 0x4E487B7100000000000000000000000000000000000000000000000000000000 PUSH1 0x0 MSTORE PUSH1 0x11 PUSH1 0x4 MSTORE PUSH1 0x24 PUSH1 0x0 REVERT JUMPDEST PUSH32 0x4E487B7100000000000000000000000000000000000000000000000000000000 PUSH1 0x0 MSTORE PUSH1 0x22 PUSH1 0x4 MSTORE PUSH1 0x24 PUSH1 0x0 REVERT JUMPDEST PUSH32 0x4E487B7100000000000000000000000000000000000000000000000000000000 PUSH1 0x0 MSTORE PUSH1 0x41 PUSH1 0x4 MSTORE PUSH1 0x24 PUSH1 0x0 REVERT JUMPDEST PUSH1 0x0 DUP1 REVERT JUMPDEST PUSH1 0x0 DUP1 REVERT JUMPDEST PUSH1 0x0 DUP1 REVERT JUMPDEST PUSH1 0x0 DUP1 REVERT JUMPDEST PUSH1 0x0 PUSH1 0x1F NOT PUSH1 0x1F DUP4 ADD AND SWAP1 POP SWAP2 SWAP1 POP JUMP JUMPDEST PUSH32 0x42696B6520686173682063616E6E6F7420626520656D7074792E000000000000 PUSH1 0x0 DUP3 ADD MSTORE POP JUMP JUMPDEST PUSH32 0x42696B6520494420646F6573206E6F742065786973742E000000000000000000 PUSH1 0x0 DUP3 ADD MSTORE POP JUMP JUMPDEST PUSH32 0x42696B65206F776E65722063616E6E6F74207265636F76657220746865206269 PUSH1 0x0 DUP3 ADD MSTORE PUSH32 0x6B652E0000000000000000000000000000000000000000000000000000000000 PUSH1 0x20 DUP3 ADD MSTORE POP JUMP JUMPDEST PUSH32 0x4F6E6C79207468652062696B65206F776E65722063616E207265706F72742074 PUSH1 0x0 DUP3 ADD MSTORE PUSH32 0x68652062696B652061732073746F6C656E2E0000000000000000000000000000 PUSH1 0x20 DUP3 ADD MSTORE POP JUMP JUMPDEST PUSH32 0x42696B65206973206E6F74207265706F727465642061732073746F6C656E2E00 PUSH1 0x0 DUP3 ADD MSTORE POP JUMP JUMPDEST PUSH32 0x42696B65206973206E6F7420726567697374657265642E000000000000000000 PUSH1 0x0 DUP3 ADD MSTORE POP JUMP JUMPDEST PUSH32 0x42696B6520697320616C7265616479207265706F727465642061732073746F6C PUSH1 0x0 DUP3 ADD MSTORE PUSH32 0x656E2E0000000000000000000000000000000000000000000000000000000000 PUSH1 0x20 DUP3 ADD MSTORE POP JUMP JUMPDEST PUSH32 0x596F7520616C7265616479206F776E20746869732062696B652E000000000000 PUSH1 0x0 DUP3 ADD MSTORE POP JUMP JUMPDEST PUSH32 0x42696B65206973207265706F727465642061732073746F6C656E2E0000000000 PUSH1 0x0 DUP3 ADD MSTORE POP JUMP JUMPDEST PUSH32 0x496E76616C69642070726976617465206B65792E000000000000000000000000 PUSH1 0x0 DUP3 ADD MSTORE POP JUMP JUMPDEST PUSH2 0x1AF2 DUP2 PUSH2 0x1709 JUMP JUMPDEST DUP2 EQ PUSH2 0x1AFD JUMPI PUSH1 0x0 DUP1 REVERT JUMPDEST POP JUMP JUMPDEST PUSH2 0x1B09 DUP2 PUSH2 0x1733 JUMP JUMPDEST DUP2 EQ PUSH2 0x1B14 JUMPI PUSH1 0x0 DUP1 REVERT JUMPDEST POP JUMP INVALID LOG2 PUSH5 0x6970667358 0x22 SLT KECCAK256 PUSH10 0x74AAD03BF02F126AFE51 SELFDESTRUCT CALLER 0xF8 DUP8 SWAP9 PUSH31 0xDD06427CF02EBC94B9A411B7E838F764736F6C634300080600330000000000 "
		},
		"gasEstimates": {
			"creation": {
				"codeDepositCost": "1397800",
				"executionCost": "1458",
				"totalCost": "1399258"
			},
			"external": {
				"bikeCount()": "2495",
				"getBicycleDetails(uint256)": "infinite",
				"getBicycleLocation(uint256,bytes32)": "infinite",
				"produceBicycle(bytes32,uint256,string,string,string,uint256,string)": "infinite",
				"purchaseBicycle(uint256,bytes32,string)": "infinite",
				"recoverBicycle(uint256)": "infinite",
				"reportBicycleStolen(uint256)": "infinite"
			}
		},
		"methodIdentifiers": {
			"bikeCount()": "f4f3bc90",
			"getBicycleDetails(uint256)": "42349514",
			"getBicycleLocation(uint256,bytes32)": "52e60d60",
			"produceBicycle(bytes32,uint256,string,string,string,uint256,string)": "1379bfd2",
			"purchaseBicycle(uint256,bytes32,string)": "3d7b6f4d",
			"recoverBicycle(uint256)": "a5ba70e8",
			"reportBicycleStolen(uint256)": "547c2776"
		}
	},
	"abi": [
		{
			"anonymous": false,
			"inputs": [
				{
					"indexed": false,
					"internalType": "uint256",
					"name": "bikeId",
					"type": "uint256"
				},
				{
					"indexed": false,
					"internalType": "bytes32",
					"name": "bikeHash",
					"type": "bytes32"
				}
			],
			"name": "BikeProduced",
			"type": "event"
		},
		{
			"anonymous": false,
			"inputs": [
				{
					"indexed": false,
					"internalType": "uint256",
					"name": "bikeId",
					"type": "uint256"
				},
				{
					"indexed": false,
					"internalType": "bytes32",
					"name": "privateKey",
					"type": "bytes32"
				}
			],
			"name": "BikePurchased",
			"type": "event"
		},
		{
			"anonymous": false,
			"inputs": [
				{
					"indexed": false,
					"internalType": "uint256",
					"name": "bikeId",
					"type": "uint256"
				},
				{
					"indexed": false,
					"internalType": "address",
					"name": "newOwner",
					"type": "address"
				}
			],
			"name": "BikeRecovered",
			"type": "event"
		},
		{
			"anonymous": false,
			"inputs": [
				{
					"indexed": false,
					"internalType": "uint256",
					"name": "bikeId",
					"type": "uint256"
				}
			],
			"name": "BikeStolen",
			"type": "event"
		},
		{
			"inputs": [],
			"name": "bikeCount",
			"outputs": [
				{
					"internalType": "uint256",
					"name": "",
					"type": "uint256"
				}
			],
			"stateMutability": "view",
			"type": "function"
		},
		{
			"inputs": [
				{
					"internalType": "uint256",
					"name": "_bikeId",
					"type": "uint256"
				}
			],
			"name": "getBicycleDetails",
			"outputs": [
				{
					"internalType": "uint256",
					"name": "",
					"type": "uint256"
				},
				{
					"internalType": "string",
					"name": "",
					"type": "string"
				},
				{
					"internalType": "string",
					"name": "",
					"type": "string"
				},
				{
					"internalType": "string",
					"name": "",
					"type": "string"
				},
				{
					"internalType": "uint256",
					"name": "",
					"type": "uint256"
				},
				{
					"internalType": "string",
					"name": "",
					"type": "string"
				},
				{
					"internalType": "bytes32",
					"name": "",
					"type": "bytes32"
				},
				{
					"internalType": "bytes32",
					"name": "",
					"type": "bytes32"
				},
				{
					"internalType": "bool",
					"name": "",
					"type": "bool"
				}
			],
			"stateMutability": "view",
			"type": "function"
		},
		{
			"inputs": [
				{
					"internalType": "uint256",
					"name": "_bikeId",
					"type": "uint256"
				},
				{
					"internalType": "bytes32",
					"name": "_privateKey",
					"type": "bytes32"
				}
			],
			"name": "getBicycleLocation",
			"outputs": [
				{
					"internalType": "bytes32",
					"name": "",
					"type": "bytes32"
				}
			],
			"stateMutability": "view",
			"type": "function"
		},
		{
			"inputs": [
				{
					"internalType": "bytes32",
					"name": "_bikeHash",
					"type": "bytes32"
				},
				{
					"internalType": "uint256",
					"name": "_year",
					"type": "uint256"
				},
				{
					"internalType": "string",
					"name": "_brand",
					"type": "string"
				},
				{
					"internalType": "string",
					"name": "_model",
					"type": "string"
				},
				{
					"internalType": "string",
					"name": "_color",
					"type": "string"
				},
				{
					"internalType": "uint256",
					"name": "_frameSize",
					"type": "uint256"
				},
				{
					"internalType": "string",
					"name": "_serialNumber",
					"type": "string"
				}
			],
			"name": "produceBicycle",
			"outputs": [],
			"stateMutability": "nonpayable",
			"type": "function"
		},
		{
			"inputs": [
				{
					"internalType": "uint256",
					"name": "_bikeId",
					"type": "uint256"
				},
				{
					"internalType": "bytes32",
					"name": "_privateKey",
					"type": "bytes32"
				},
				{
					"internalType": "string",
					"name": "_publicKey",
					"type": "string"
				}
			],
			"name": "purchaseBicycle",
			"outputs": [],
			"stateMutability": "nonpayable",
			"type": "function"
		},
		{
			"inputs": [
				{
					"internalType": "uint256",
					"name": "_bikeId",
					"type": "uint256"
				}
			],
			"name": "recoverBicycle",
			"outputs": [],
			"stateMutability": "nonpayable",
			"type": "function"
		},
		{
			"inputs": [
				{
					"internalType": "uint256",
					"name": "_bikeId",
					"type": "uint256"
				}
			],
			"name": "reportBicycleStolen",
			"outputs": [],
			"stateMutability": "nonpayable",
			"type": "function"
		}
	]
}